:020000040800F2
:1000000000000220DDD602089D190208ED1B02083F
:10001000051C0208091C02080D1C02080000000053
:10002000000000000000000000000000111C020899
:10003000151C020800000000191C02087D190208A6
:1000400049D7020849D7020849D7020849D7020808
:1000500049D7020849D7020849D7020849D70208F8
:1000600049D7020849D7020849D7020849D70208E8
:1000700049D7020849D70208311D0208791D020834
:1000800049D70208E91C020849D7020849D70208E3
:1000900049D7020849D7020849D7020849D70208B8
:1000A00049D7020849D7020849D7020849D70208A8
:1000B000451C020849D7020849D70208E91D020871
:1000C000E11D0208F91D0208F11D020849D70208C6
:1000D00049D70208C11D0208C91D0208D11D020826
:1000E00049D7020849D70208313801081D1C020807
:1000F00049D7020849D7020849D7020849D7020858
:1001000049D7020849D702087D1C020849D70208CE
:10011000D91D020849D7020849D7020849D7020861
:1001200049D7020849D7020849D7020849D7020827
:1001300049D7020849D7020849D7020849D7020817
:1001400049D7020849D7020849D7020839380108B7
:1001500049D7020849D70208A11C020849D702085A
:10016000091E0208011E020849D7020849D70208E1
:1001700049D7020849D7020849D7020849D70208D7
:0801800049D7020849D7020823
:1080000010B5054C237833B9044B13B10448AFF3D2
:1080100000800123237010BDE8070020000000004D
:10802000743E030808B5034B1BB103490348AFF383
:10803000008008BD00000000EC070020743E03082B
:1080400081F0004102E000BF83F0004330B54FEA09
:1080500041044FEA430594EA050F08BF90EA020F76
:108060001FBF54EA000C55EA020C7FEA645C7FEA09
:10807000655C00F0E2804FEA5454D4EB5555B8BF2C
:108080006D420CDD2C4480EA020281EA030382EA9D
:10809000000083EA010180EA020281EA0303362D2F
:1080A00088BF30BD11F0004F4FEA01314FF4801C02
:1080B0004CEA113102D0404261EB410113F0004F14
:1080C0004FEA03334CEA133302D0524263EB4303CB
:1080D00094EA050F00F0A780A4F10104D5F1200E69
:1080E0000DDB02FA0EFC22FA05F2801841F10001C4
:1080F00003FA0EF2801843FA05F359410EE0A5F198
:1081000020050EF1200E012A03FA0EFC28BF4CF0C8
:10811000020C43FA05F3C01851EBE37101F000457E
:1081200007D54FF0000EDCF1000C7EEB00006EEB8B
:108130000101B1F5801F1BD3B1F5001F0CD3490815
:108140005FEA30004FEA3C0C04F101044FEA44526C
:1081500012F5800F80F09A80BCF1004F08BF5FEAF3
:10816000500C50F1000041EB045141EA050130BDD3
:108170005FEA4C0C404141EB010111F4801FA4F176
:108180000104E9D191F0000F04BF01460020B1FACB
:1081900081F308BF2033A3F10B03B3F120020CDA03
:1081A0000C3208DD02F1140CC2F10C0201FA0CF0E1
:1081B00021FA02F10CE002F11402D8BFC2F1200C46
:1081C00001FA02F120FA0CFCDCBF41EA0C019040FC
:1081D000E41AA2BF01EB0451294330BD6FEA040445
:1081E0001F3C1CDA0C340EDC04F11404C4F1200230
:1081F00020FA04F001FA02F340EA030021FA04F342
:1082000045EA030130BDC4F10C04C4F1200220FA98
:1082100002F001FA04F340EA0300294630BD21FAD6
:1082200004F0294630BD94F0000F83F4801306BF9C
:1082300081F480110134013D4EE77FEA645C18BF90
:108240007FEA655C29D094EA050F08BF90EA020F27
:1082500005D054EA000C04BF1946104630BD91EA1F
:10826000030F1EBF0021002030BD5FEA545C05D122
:108270004000494128BF41F0004130BD14F5800461
:108280003CBF01F5801130BD01F0004545F0FE41D5
:1082900041F470014FF0000030BD7FEA645C1ABF0A
:1082A000194610467FEA655C1CBF0B46024650EA41
:1082B000013406BF52EA033591EA030F41F400216D
:1082C00030BD00BF90F0000F04BF0021704730B5F3
:1082D0004FF4806404F132044FF000054FF00001C8
:1082E00050E700BF90F0000F04BF0021704730B589
:1082F0004FF4806404F1320410F0004548BF40425E
:108300004FF000013EE700BF42004FEAE2014FEAB2
:1083100031014FEA02701FBF12F07F4393F07F4F8D
:1083200081F06051704792F0000F14BF93F07F4FBF
:10833000704730B54FF4607401F0004521F0004102
:1083400020E700BF50EA010208BF704730B54FF088
:1083500000050AE050EA010208BF704730B511F08D
:10836000004502D5404261EB41014FF4806404F1C5
:1083700032045FEA915C3FF4DCAE4FF003025FEA47
:10838000DC0C18BF03325FEADC0C18BF033202EBCF
:10839000DC02C2F1200300FA03FC20FA02F001FA29
:1083A00003FE40EA0E0021FA02F11444C1E600BFC8
:1083B00070B54FF0FF0C4CF4E06C1CEA11541DBF7B
:1083C0001CEA135594EA0C0F95EA0C0F00F0DEF846
:1083D0002C4481EA030621EA4C5123EA4C5350EA2B
:1083E000013518BF52EA033541F4801143F480137C
:1083F00038D0A0FB02CE4FF00005E1FB02E506F00D
:108400000042E0FB03E54FF00006E1FB03569CF061
:10841000000F18BF4EF0010EA4F1FF04B6F5007F67
:1084200064F5407404D25FEA4E0E6D4146EB0606D9
:1084300042EAC62141EA55514FEAC52040EA5E5062
:108440004FEACE2EB4F1FD0C88BFBCF5E06F1ED80C
:10845000BEF1004F08BF5FEA500E50F1000041EB43
:10846000045170BD06F0004646EA010140EA0200F0
:1084700081EA0301B4EB5C04C2BFD4EB0C0541EA12
:10848000045170BD41F480114FF0000E013C00F327
:10849000AB8014F1360FDEBF002001F0004170BD4B
:1084A000C4F10004203C35DA0C341BDC04F1140464
:1084B000C4F1200500FA05F320FA04F001FA05F2F0
:1084C00040EA020001F0004221F0004110EBD370BD
:1084D00021FA04F642EB06015EEA430E08BF20EAE9
:1084E000D37070BDC4F10C04C4F1200500FA04F38C
:1084F00020FA05F001FA04F240EA020001F000411E
:1085000010EBD37041F100015EEA430E08BF20EA90
:10851000D37070BDC4F1200500FA05F24EEA020ED8
:1085200020FA04F301FA05F243EA020321FA04F007
:1085300001F0004121FA04F220EA020000EBD370BE
:108540005EEA430E08BF20EAD37070BD94F0000FBE
:108550000FD101F00046400041EB010111F4801FF2
:1085600008BF013CF7D041EA060195F0000F18BFA3
:10857000704703F00046520043EB030313F4801FDF
:1085800008BF013DF7D043EA0603704794EA0C0F99
:108590000CEA135518BF95EA0C0F0CD050EA4106AF
:1085A00018BF52EA4306D1D181EA030101F000412C
:1085B0004FF0000070BD50EA410606BF1046194654
:1085C00052EA430619D094EA0C0F02D150EA013660
:1085D00013D195EA0C0F05D152EA03361CBF1046A1
:1085E00019460AD181EA030101F0004141F0FE4140
:1085F00041F470014FF0000070BD41F0FE4141F4C4
:10860000780170BD70B54FF0FF0C4CF4E06C1CEAC3
:1086100011541DBF1CEA135594EA0C0F95EA0C0F78
:1086200000F0A7F8A4EB050481EA030E52EA033533
:108630004FEA013100F088804FEA03334FF0805554
:1086400045EA131343EA12634FEA022245EA111581
:1086500045EA10654FEA00260EF000419D4208BF32
:10866000964244F1FD0404F5407402D25B084FEADF
:108670003202B61A65EB03055B084FEA32024FF48B
:1086800080104FF4002CB6EB020E75EB030E22BFE8
:10869000B61A754640EA0C005B084FEA3202B6EBA8
:1086A000020E75EB030E22BFB61A754640EA5C0057
:1086B0005B084FEA3202B6EB020E75EB030E22BFE7
:1086C000B61A754640EA9C005B084FEA3202B6EBE8
:1086D000020E75EB030E22BFB61A754640EADC00A7
:1086E00055EA060E18D04FEA051545EA16754FEA09
:1086F00006164FEAC30343EA52734FEAC2025FEA27
:108700001C1CC0D111F4801F0BD141EA00014FF0B5
:1087100000004FF0004CB6E711F4801F04BF014386
:108720000020B4F1FD0C88BFBCF5E06F3FF6AFAEA2
:10873000B5EB030C04BFB6EB020C5FEA500C50F132
:10874000000041EB045170BD0EF0004E4EEA1131B5
:1087500014EB5C04C2BFD4EB0C0541EA045170BDBC
:1087600041F480114FF0000E013C90E645EA060E00
:108770008DE60CEA135594EA0C0F08BF95EA0C0F2E
:108780003FF43BAF94EA0C0F0AD150EA01347FF476
:1087900034AF95EA0C0F7FF425AF104619462CE74D
:1087A00095EA0C0F06D152EA03353FF4FDAE1046B0
:1087B000194622E750EA410618BF52EA43067FF401
:1087C000C5AE50EA41047FF40DAF52EA43057FF491
:1087D000EBAE12E74FF0FF3C06E000BF4FF0010C9C
:1087E00002E000BF4FF0010C4DF804CD4FEA410C00
:1087F0007FEA6C5C4FEA430C18BF7FEA6C5C1BD0CD
:1088000001B050EA410C0CBF52EA430C91EA030F4D
:1088100002BF90EA020F0020704710F1000F91EAAA
:10882000030F58BF994208BF90422CBFD8176FEA78
:10883000E37040F0010070474FEA410C7FEA6C5C46
:1088400002D150EA013C07D14FEA430C7FEA6C5C4D
:10885000D6D152EA033CD3D05DF8040B704700BF79
:108860008446104662468C461946634600E000BFC7
:1088700001B5FFF7B7FF002848BF10F1000F01BD99
:108880004DF808EDFFF7F4FF0CBF012000205DF864
:1088900008FB00BF4DF808EDFFF7EAFF34BF0120E9
:1088A00000205DF808FB00BF4DF808EDFFF7E0FF82
:1088B00094BF012000205DF808FB00BF4DF808EDD3
:1088C000FFF7CEFF94BF012000205DF808FB00BF3A
:1088D0004DF808EDFFF7C4FF34BF012000205DF81C
:1088E00008FB00BF4FEA410C7FEA6C5C02D150EA02
:1088F000013C0AD14FEA430C7FEA6C5C02D152EA98
:10890000033C02D14FF0000070474FF00100704768
:108910004FEA410212F5001215D211D56FF47873A7
:10892000B3EB625212D94FEAC12343F0004343EA4A
:10893000505311F0004F23FA02F018BF4042704725
:108940004FF00000704750EA013005D111F00040AF
:1089500008BF6FF0004070474FF00000704700BF45
:108960004A0011D212F5001211D20DD56FF47873AE
:10897000B3EB62520ED44FEAC12343F0004343EA03
:10898000505323FA02F070474FF00000704750EA4E
:10899000013002D14FF0FF3070474FF000007047B8
:1089A0004FEA4102B2F1E04324BFB3F5001CDCF111
:1089B000FE5C0DD901F0004C4FEAC0024CEA507049
:1089C000B2F1004F40EB830008BF20F00100704778
:1089D00011F0804F21D113F13872BCBF01F000407B
:1089E000704741F480114FEA5252C2F11802C2F1AD
:1089F000200C10FA0CF320FA02F018BF40F001002E
:108A00004FEAC1234FEAD32303FA0CFC40EA0C00DF
:108A100023FA02F34FEA4303CCE77FEA625307D11C
:108A200050EA01331EBF4FF0FE4040F44000704753
:108A300001F0004040F0FE4040F40000704700BFED
:108A400080F0004002E000BF81F0004142001FBF03
:108A50005FEA410392EA030F7FEA226C7FEA236C0C
:108A60006AD04FEA1262D2EB1363C1BFD218414001
:108A700048404140B8BF5B42192B88BF704710F097
:108A8000004F40F4000020F07F4018BF404211F03A
:108A9000004F41F4000121F07F4118BF494292EAA2
:108AA000030F3FD0A2F1010241FA03FC10EB0C00CE
:108AB000C3F1200301FA03F100F0004302D549425B
:108AC00060EB4000B0F5000F13D3B0F1807F06D308
:108AD00040084FEA310102F10102FE2A51D2B1F100
:108AE000004F40EBC25008BF20F0010040EA0300F5
:108AF0007047490040EB000010F4000FA2F10102A2
:108B0000EDD1B0FA80FCACF1080CB2EB0C0200FA2B
:108B10000CF0AABF00EBC25052421843BCBFD04079
:108B20001843704792F0000F81F4000106BF80F4F3
:108B300000000132013BB5E74FEA41037FEA226CB6
:108B400018BF7FEA236C21D092EA030F04D092F081
:108B5000000F08BF0846704790EA010F1CBF0020B5
:108B6000704712F07F4F04D1400028BF40F0004012
:108B7000704712F100723CBF00F50000704700F032
:108B8000004343F0FE4040F4000070477FEA226259
:108B900016BF08467FEA23630146420206BF5FEA2A
:108BA000412390EA010F40F4800070474FF000032A
:108BB00004E000BF10F0004348BF40425FEA000CF1
:108BC00008BF704743F0964301464FF000001CE099
:108BD00050EA010208BF70474FF000030AE000BFEF
:108BE00050EA010208BF704711F0004302D540422D
:108BF00061EB41015FEA010C02BF8446014600209F
:108C000043F0B64308BFA3F18053A3F50003BCFAB9
:108C10008CF2083AA3EBC25310DB01FA02FC634466
:108C200000FA02FCC2F12002BCF1004F20FA02F26D
:108C300043EB020008BF20F00100704702F1200260
:108C400001FA02FCC2F1200250EA4C0021FA02F2C1
:108C500043EB020008BF20EADC70704753B94AB901
:108C6000002908BF00281CBF4FF0FF314FF0FF3034
:108C700000F07AB9ADF1080C6DE904CE00F006F809
:108C8000DDF804E0DDE9022304B070472DE9F04788
:108C90008C460D460446089E002B51D18A42174649
:108CA0006DD9B2FA82FEBEF1000F0BD0CEF1200CCE
:108CB00001FA0EF520FA0CFC02FA0EF74CEA050C4C
:108CC00000FA0EF44FEA174A250CBCFBFAF81FFA1B
:108CD00087F90AFB18CC45EA0C4508FB09F3AB42BF
:108CE0000AD9ED1908F1FF3280F02381AB4240F23E
:108CF0002081A8F102083D44ED1AA4B2B5FBFAF0B8
:108D00000AFB105544EA054400FB09F9A14509D9BD
:108D1000E41900F1FF3380F00A81A14540F2078198
:108D200002383C44A4EB090440EA08400021002E2C
:108D300061D024FA0EF4002334607360BDE8F0873C
:108D40008B4207D9002E54D0002186E82100084626
:108D5000BDE8F087B3FA83F1002940F08E80AB4282
:108D600002D3824200F2FA80841A65EB03050120E7
:108D7000AC46002E3FD086E81010BDE8F08712B94F
:108D80000127B7FBF2F7B7FA87FEBEF1000F34D127
:108D9000EB1B3A0C1FFA87FC0121B3FBF2F8250C00
:108DA00002FB183345EA03450CFB08F3AB4207D935
:108DB000ED1908F1FF3002D2AB4200F2D1808046BB
:108DC000ED1AA3B2B5FBF2F002FB105543EA0544DD
:108DD0000CFB00FCA44507D9E41900F1FF3302D2D3
:108DE000A44500F2B8801846A4EB0C0440EA084001
:108DF0009DE731463046BDE8F087CEF1200405FA04
:108E00000EF307FA0EF720FA04F83A0C25FA04F4E8
:108E100048EA0308B4FBF2F14FEA184502FB11449B
:108E20001FFA87FC45EA044501FB0CF3AB4200FA4C
:108E30000EF409D9ED1901F1FF3080F08A80AB42C0
:108E400040F2878002393D44EB1A1FFA88F5B3FBE4
:108E5000F2F002FB103345EA034500FB0CF3AB4292
:108E600007D9ED1900F1FF386FD2AB426DD9023846
:108E70003D44EB1A40EA01418FE7C1F1200722FA95
:108E800007F88B4005FA01F448EA030320FA07FECD
:108E90004FEA134CFD404EEA040EB5FBFCF94FEAD5
:108EA0001E440CFB19551FFA83F844EA054509FBDB
:108EB00008F4AC4202FA01F200FA01FA08D9ED18FE
:108EC00009F1FF3043D2AC4241D9A9F102091D4456
:108ED0002D1B1FFA8EFEB5FBFCF00CFB10554EEA65
:108EE000054400FB08F8A04507D9E41800F1FF3558
:108EF00029D2A04527D902381C4440EA0940A4EBF6
:108F00000804A0FB02894C45C6464D4615D312D035
:108F100056B1BAEB0E0364EB050404FA07F7CB4035
:108F20001F43CC40376074600021BDE8F0871846CD
:108F3000F8E69046E0E6C245EAD2B8EB020E69EBED
:108F400003050138E4E72846D7E7404691E7814624
:108F5000BEE7014678E702383C4445E7084608E7A3
:108F6000A8F102083D442BE7704700BF034613F801
:108F7000012B002AFBD1181A0138704708B5174B8E
:108F8000984212D0164B98421BD0164B984200D0F4
:108F900008BD01214FF4004000F03CFC00214FF4DB
:108FA0000040BDE8084000F035BC01214FF480507E
:108FB00000F03CFC00214FF48050BDE8084000F078
:108FC00035BC01214FF4804000F024FC00214FF417
:108FD0008040BDE8084000F01DBC00BF00300140EB
:108FE00000380040003C00400A884B88F0B48F886D
:108FF000CD880C894E8913433B432B4323438D89F2
:10900000CC890288098A33432B43234302F441521B
:1090100013439BB20380838B23F400631B041B0C5C
:109020008383F0BC01827047002307220282038001
:1090300043808380C380038143818381C3817047E0
:10904000038829B923F040031B041B0C03807047DD
:109050009BB243F040030380704700BF808980B219
:10906000704700BF81817047038829B923F40053FA
:109070001B041B0C038070479BB243F40053038016
:10908000704700BF0389194214BF012000207047B8
:1090900042680B69F0B522F0407291F804E00E6866
:1090A000CF688C680C4D22F4807242EA0E22324363
:1090B000426086684A793B43354023432B4343EA69
:1090C000420383600A7DC36A013AD2B223F470037B
:1090D00043EA0253C362F0BDFDF7FFC00023012243
:1090E00002750360037143718360C360036170475D
:1090F0000749084A70B490E848004D688468C06821
:1091000033432A401343234303434B6070BC7047EF
:1091100000230140E030FCFF0023036043608360D4
:10912000C3607047836819B923F0010383607047F7
:1091300043F0010383607047092970B41CD9A1F181
:109140000A0404EB4404C5680726A640A34025EAA8
:1091500006042343062AC3601AD90C2A25D90D3ADE
:1091600002EB8202C36A1F249440914023EA040266
:109170001143C16270BC704701EB410604690725C9
:10918000B540B34024EA05042343062A0361E4D82A
:10919000013A02EB8202436B1F249440914023EA80
:1091A00004021143416370BC7047073A02EB82022C
:1091B000036B1F249440914023EA0402114301638E
:1091C00070BC7047836843F080438360704700BF82
:1091D000836819B923F480738360704743F4807304
:1091E00083607047836819B923F400738360704704
:1091F00043F4007383607047028AF0B592B204466C
:10920000C8880D4622F4405202438989AB882F89D1
:109210006E892282A28922F4B05222F00C023B43D2
:1092200012043343120C9BB21343A381A38A9BB253
:1092300023F440730B4385B0A382684600F072FAB2
:109240001C4B9C4228D003F580639C4224D0029A98
:10925000A389A18913F4004F2B68174D02EB8202FA
:1092600014BF5B009B0002EB8202B2FBF3F0A5FB94
:1092700000325209642303FB120310010A040DD4C7
:109280001B013233A5FB0323C3F3431343EA00025C
:1092900092B2228105B0F0BD039AD9E7D9003231EC
:1092A000A5FB0131C1F34212024392B2228105B003
:1092B000F0BD00BF001001401F85EB5100234FF4AB
:1092C00016510C22016042818380C3800381838117
:1092D000704700BF838929B923F400531B041B0C7A
:1092E000838170479BB243F400538381704700BF72
:1092F000C1F30801818070478088C0F3080070477F
:1093000010B401F01F04C1F342110123012903FA33
:1093100004F311D002290CBF1030143032B90268A6
:109320005DF8044B22EA03030360704702685DF8AE
:10933000044B1343036070470C30EFE7C1F3421254
:1093400010B4012301F01F04012A03FA04F317D01B
:10935000022A0CBF028A828A92B21340028892B219
:1093600053B10123090A03FA01F10A4214BF184656
:1093700000205DF8044B704718465DF8044B7047B9
:10938000828992B21340E9E740F0BF60024B40F49B
:109390000030D860704700BF00ED00E0C3785BB9D3
:1093A000037816485A09203203F01F03012101FAFD
:1093B00003F340F822307047114A70B4D268437802
:1093C000867801780D48D243C2F30222C2F1040527
:1093D000EDB20F24AB4044FA02F23240DBB2134349
:1093E00044181B0101F01F0501224909DBB2AA4004
:1093F00084F8003370BC40F82120704700E100E0A1
:1094000000ED00E0044B1A69002A03DA0349044A1C
:1094100059605A60704700BF003C02402301674515
:10942000AB89EFCD024A136943F0004313617047E3
:10943000003C024010B483B039B101294BD002295D
:109440000CBF4FF400714FF4407108225A4B8DF855
:109450000620DA68D4033CD4DA68D20626D5052380
:109460008DF806309DF80630012B15D1524A09E0DF
:10947000D368DB0620D505238DF806309DF806302D
:10948000012B09D1D368DC03F2D501238DF8063016
:109490009DF80630012BF5D09DF80630DBB2082B85
:1094A00023D0184603B05DF8044B7047DA6812F019
:1094B000EF0F13D00623D3E7D36813F0EF0F01D0DB
:1094C0000623D9E7D36813F0020F14BF072308233C
:1094D000D2E70123C4E74FF48071B6E7DB6813F0ED
:1094E000020F14BF07230823BAE7334A146924F490
:1094F00040741461146921431161116921F0F8016C
:109500001161116941F0020108431061116941F4D0
:10951000803111618DF80730D368DC033DD4D36806
:10952000D8063CD505238DF807309DF80730012B70
:1095300015D1214A09E0D368DB0621D505238DF832
:1095400007309DF80730012B09D1D368D903F2D534
:1095500001238DF807309DF80730012BF5D0164A0E
:109560009DF80730116921F0020111611169DBB228
:1095700021F0F8011846116103B05DF8044B704703
:10958000D36813F0EF0F01D00623D8E7D36813F0A8
:10959000020F14BF07230823D1E70123C3E7D368D1
:1095A00013F0EF0F01D00623BDE7D36813F0020FCD
:1095B00014BF07230823B6E7003C024010B483B071
:1095C0000822544B8DF80620DA68D4033CD4DA68BC
:1095D000D20626D505238DF806309DF80630012BDE
:1095E00015D14C4A09E0D368DB0620D505238DF858
:1095F00006309DF80630012B09D1D368DC03F2D583
:1096000001238DF806309DF80630012BF5D09DF82A
:109610000630DBB2082B20D0184603B05DF8044BAF
:109620007047DA6812F0EF0F10D00623D3E7D36843
:1096300013F0EF0F01D00623D9E7D36813F0020F20
:1096400014BF07230823D2E70123C4E7DB6813F024
:10965000020F14BF07230823BDE72E4A146924F420
:1096600040741461146944F400741461146944F082
:109670000104146101608DF80730D368DC0339D42C
:10968000D368D80638D505238DF807309DF8073004
:10969000012B15D11F4A09E0D368DB061DD5052330
:1096A0008DF807309DF80730012B09D1D368D90315
:1096B000F2D501238DF807309DF80730012BF5D046
:1096C00014499DF807300A69DBB222F001021846FE
:1096D0000A6103B05DF8044B7047D36813F0EF0FD5
:1096E00001D00623DCE7D36813F0020F14BF072371
:1096F0000823D5E70123C7E7D36813F0EF0F01D0A4
:109700000623C1E7D36813F0020F14BF0723082311
:10971000BAE700BF003C0240014BD860704700BF71
:10972000003C02401F4A936803F00C03042B10B462
:109730001BD0082B1CD01C4B03601A4A1B49946891
:10974000C4F303140C5DE34043609468C4F38224C3
:109750000C5D23FA04F4846092685DF8044BC2F354
:1097600042328A5CD340C3607047114B0360E4E728
:109770005468516852686302C2F3881201F03F01D5
:109780004CBF0B4B084BB3FBF1F303FB02F3054A51
:109790005268C2F3014201325200B3FBF2F303609C
:1097A000CBE700BF003802400024F4000000002096
:1097B00000127A00044A136B19B923EA00001063FF
:1097C000704718431063704700380240044A536BD7
:1097D00019B923EA0000506370471843506370477B
:1097E00000380240044A136C19B923EA00001064DF
:1097F000704718431064704700380240044A536CA5
:1098000019B923EA00005064704718435064704748
:1098100000380240044A136A19B923EA00001062B2
:10982000704718431062704700380240044A536A78
:1098300019B923EA0000506270471843506270471C
:10984000003802404309012B0BD0022B094B0CBFFF
:109850001B6F5B6F00F01F0023FA00F000F00100A7
:109860007047044B1B6800F01F0023FA00F000F063
:109870000100704700380240024A536F43F0807382
:10988000536770470038024008B5174B984212D012
:10989000164B98421BD0164B984200D008BD0121B0
:1098A0004FF40000FFF7B6FF00214FF40000BDE8C1
:1098B0000840FFF7AFBF01214FF40010FFF7AAFFE8
:1098C00000214FF40010BDE80840FFF7A3BF0121BD
:1098D0004FF48000FFF79EFF00214FF48000BDE8A9
:1098E0000840FFF797BF00BF0054004000580040F9
:1098F000005C0040F0B5044685B068460E46A58879
:10990000FFF710FF0298314A3368DFF8C8E0A2FB86
:10991000001225F03F05910C2D042D0C8FB23D4314
:10992000A580228822F001021204120C73452280C5
:1099300023D85B00B0FBF3F39BB20137042B38BF95
:1099400004232784A3832188B0887789B289358945
:1099500089B241F001012180238823F4816323F03F
:1099600002031B0440EA07011B0C0B432A439BB272
:1099700092B22380228105B0F0BDF5884BF6FF72CC
:1099800095421DD003EB830303EB8303B0FBF3F39A
:109990009BB243F48043C3F30B020AB943F00103C3
:1099A0004FF496720A4802FB01F280FB0201D217C3
:1099B000C2EBA112013292B243F400432284C1E708
:1099C00003EB4303B0FBF3F39BB2E4E783DE1B43FB
:1099D000D34D6210A0860100002310B44BF6FF7136
:1099E00041F288344FF480420460C18082818380D8
:1099F000038143815DF8044B704700BF038829B998
:109A000023F001031B041B0C038070479BB243F03F
:109A100001030380704700BF038829B923F48073D2
:109A20001B041B0C038070479BB243F480730380BC
:109A3000704700BF038829B923F400731B041B0C73
:109A4000038070479BB243F400730380704700BFEC
:109A500022B901F0FE0189B20182704741F0010193
:109A600089B20182704700BF038829B923F480635B
:109A70001B041B0C038070479BB243F4806303807C
:109A8000704700BF01827047008AC0B2704700BFB4
:109A900083889BB21AB923EA010181807047194378
:109AA0008180704702683749002310B422F0010218
:109AB000212488420260036043608360C3600361C5
:109AC00044614DD0304B984235D0304B984239D01C
:109AD0002F4B98423DD02F4B984247D02E4B984267
:109AE00048D02E4B98421DD02D4B98421ED02D4B66
:109AF000984243D02C4B98421DD02C4B984221D0F9
:109B00002B4B984225D02B4B98422FD02A4B984272
:109B100030D02A4B984205D0294B984206D05DF8A8
:109B2000044B7047274A43F8942CF8E74FF03D5216
:109B300043F8AC2CF3E74FF4746243F8202C5DF843
:109B4000044B70474FF4741243F8382C5DF8044B03
:109B500070474FF0746243F8502C5DF8044B704727
:109B6000194B5DF8044B3D229A607047174A43F841
:109B7000642CD4E7164A43F87C2CD0E73D2243F806
:109B8000082CCCE710600240286002404060024090
:109B9000586002407060024088600240A06002404D
:109BA000B8600240106402402864024040640240F1
:109BB000586402407064024088640240A06402401D
:109BC000B864024000003D20006002403D000020DB
:109BD000400F00200B68CA69F0B4CE684D698C69EB
:109BE0000F6A33432B4323434E6A8D6A4C6B1343F6
:109BF0003B4333438A6B07680B4E2B4323433E4062
:109C000013433343CD6A036042690B6B0E694C68A2
:109C100089682B4322F00702134343614660846046
:109C2000C160F0BC704700BF3F801CF000230360A0
:109C300043608360C360036143618361C361036206
:109C400043628362C362036343638363704700BFFD
:109C5000036819B923F001030360704743F001035F
:109C60000360704741607047406880B2704700BF32
:109C7000006800F00100704710B4094B094C0A4A13
:109C8000A04294BF1846104611F0005F21F0F02169
:109C900021F0821114BFC16081605DF8044B7047F0
:109CA000006002400F64024000640240014B5861B2
:109CB000704700BF003C0140234A038890429BB29A
:109CC00012D002F5806290420ED0B0F1804F0BD0DE
:109CD000A2F58032904207D002F58062904203D014
:109CE00002F58062904203D14A8823F07003134347
:109CF000164A90421FD002F5806290421BD070B489
:109D000023F440730E894D680C8802F56C429BB2B7
:109D1000334390420380C562048506D00C4B9842C1
:109D200003D00123838270BC70478B7A03860123A2
:109D3000838270BC704703800B884A68C2620385C7
:109D400001238382704700BF0000014000100040E3
:109D50000004014000234FF0FF32426003810360A2
:109D600083727047038829B923F001031B041B0C7D
:109D7000038070479BB243F001030380704700BF2C
:109D8000F0B5048C8F89B1F802E00E88194D24F0EB
:109D900001042404240C0484038C8488028B23F0A3
:109DA00002031B0422F073021B0C47EA0E07120485
:109DB0003B43120CA8429BB2A4B242EA060209D06D
:109DC00005F58065A84205D08968848002834163D7
:109DD0000384F0BDCE890D8A4F8A23F008033343F4
:109DE00024F440748E883D4323F004032C43334312
:109DF000A4B2E9E700000140F0B5048C8E89B1F807
:109E000002C0B1F800E01D4D24F010042404240C1D
:109E10000484038C8788028B23F0200322F4E6421B
:109E20001B04120446EA0C041B0C120C43EA041334
:109E300042EA0E22A8429BB2BCB292B209D005F50A
:109E40008065A84205D08968848002838163038489
:109E5000F0BDCD890E8A4F8A23F0800343EA0513B3
:109E60004FF6BF751D408B8824F440643E4345EA9D
:109E7000031344EA86049BB2A4B2E4E70000014065
:109E8000F0B5048C8D89B1F802C00F881E4E24F401
:109E900080742404240C0484038CB0F804E0828BC6
:109EA00023F400731B0422F073021B0C45EA0C041C
:109EB000120443EA0423120CB0429BB21FFA8EFE36
:109EC00042EA070209D0114CA04206D08968A0F8E6
:109ED00004E08283C1630384F0BDCC890D8A4E8A7D
:109EE00023F4006343EA04234FF6FF341C408B88BD
:109EF0002EF4405E354344EA03234EEA051E9BB22E
:109F00001FFA8EFEE2E700BF00000140000401409E
:109F1000F0B5048C8E89B1F802E00F88164D24F458
:109F200080542404240C0484038C8488828B23F4BE
:109F3000005322F4E6421B0412041B0C46EA0E06F0
:109F4000120C43EA063342EA0722A8429BB2A4B2AB
:109F500092B209D005F58065A84205D08968848051
:109F6000828301640384F0BD0D8A24F4804444EAB2
:109F70008514A4B2F2E700BF000001400023038073
:109F8000438083808360C36003617047038B23F049
:109F900008031B041B0C194301837047038B23F434
:109FA00000631B041B0C43EA012189B20183704743
:109FB000838B23F008031B041B0C19438183704718
:109FC000838B23F400631B041B0C43EA012189B239
:109FD000818370470B88F0B5002B2FD0042B048CA5
:109FE0004D8851D0082B79D024F480542404240CBB
:109FF000B1F804E00E89C9880484878B028C45F689
:10A00000FF731340340340F6FF4244EA0E243A4003
:10A0100043F48053224343EA053392B29BB28283D6
:10A020000384828B22F440621204120C8283838B9D
:10A030009BB243EA01239BB28383F0BD028C4C8820
:10A040008B880E89C98822F001021204120C028446
:10A05000058B028CADB225F0F30592B22B4322F0B2
:10A060000A0243EA061322439BB242F00102038331
:10A070000284038B23F00C031B041B0C0383038B50
:10A080009BB219430183F0BD24F010042404240C76
:10A090008E88B1F808E0C9880484078B038C9BB2D2
:10A0A000340223F0A00340F6FF4244EA0E343A4063
:10A0B00043F01003224343EA051392B29BB202839A
:10A0C0000384028B22F440621204120C0283038B7D
:10A0D0009BB243EA01239BB20383F0BD24F4807456
:10A0E0002404240C8A880E89C9880484848B038CF8
:10A0F000A4B29BB224F0F30423F42063224343F47C
:10A10000807342EA061243EA05239BB292B282832D
:10A110000384838B23F00C031B041B0C8383838B2E
:10A120009BB219438183F0BD00230122828003800A
:10A130004380C38003817047406B7047B0F8443060
:10A1400021B9C3F30E03A0F8443070476FEA4343CC
:10A150006FEA53439BB2A0F84430704783899BB2A7
:10A160001AB923EA0101818170471943818170473F
:10A17000038A828911EA030092B203D0114214BF0C
:10A1800001200020704700BFC94389B20182704797
:10A1900000222DE9F0471346D1F800E001274FF0E7
:10A1A000030C04E00133102B02F1020229D007FA5C
:10A1B00003F434EA0E05F5D1D0F800800E790CFADC
:10A1C00002F5ED4308EA0508C0F80080D0F800A0C9
:10A1D00006FA02F9013E49EA0A09012E0CFA02F8D0
:10A1E000C0F800900FD9C568CC7925EA0805C5608C
:10A1F000C568944001332C43102BC46002F1020265
:10A20000D5D1BDE8F087D0F808904E7905EA090568
:10A210008560D0F808908D79964046EA09068660F8
:10A22000466826EA04044460466805FA03F4A4B2CA
:10A2300034434460D7E700BF4FF6FF72002380E845
:10A240000C0070470369194214BF012000207047B9
:10A250000183704741837047CB0800EB830001F016
:10A26000070110B4036A89000F248C4023EA040319
:10A270000362036A5DF8044B02FA01F119430162BB
:10A28000704700BF81880068FFF7DCBF03688288E1
:10A2900009B95A8370471A83704700BF02688388E0
:10A2A00051694B405361704730B5054683B06846ED
:10A2B0000C46FFF7C1FF2B782A89009283B1B4FACC
:10A2C00084F35B098DF80430012200236946686835
:10A2D0008DF806308DF805308DF80720FFF758FF10
:10A2E00003B030BD2DE9F04100258CB029464FF078
:10A2F0008040059504950695FFF720FF012108464B
:10A30000FFF770FA264EDFF8A08004A8FFF722FDC1
:10A3100007A8FFF733FE3046FFF706FF01240227A8
:10A3200004A88DF805708DF80640FFF713FD4FF671
:10A33000FF7202A853230592ADF81030FFF77CFF9F
:10A34000184B039302A940460294FFF721FF2246CF
:10A3500029464046FFF780FF0CA81C2300F82C3D3F
:10A360008DF80740FFF71AF804A94FF08040FFF777
:10A37000A3FC3046FFF7D8FE31464FF080403580D1
:10A38000FFF728FE224639464FF08040FFF7E6FEF1
:10A3900021464FF08040FFF7E5FC0CB0BDE8F081AE
:10A3A0000408002002030001000002402DE9F043F0
:10A3B000C0EBC0008600434B9A5D83B01E4412B9C7
:10A3C00003B0BDE8F0836846FFF736FFB568B4898F
:10A3D000009402230122694628468DF805308DF845
:10A3E00004308DF80620FFF7D3FED6F81080B6F8BB
:10A3F0001490CDF8009069464046FFF7C9FE21460B
:10A400002846FFF725FF49464046FFF721FF0EF09B
:10A41000A5FF643086B2082706E00A200EF01CFF74
:10A420000EF09CFFB04244D821462846FFF70AFFB1
:10A430000028F2D021462846FFF70CFF0A200EF034
:10A440000BFF21462846FFF703FF013F0A200EF0CD
:10A4500003FF17F0FF07E7D149464046FFF7FAFE32
:10A460000A200EF0F9FE21462846FFF7F3FE0A20E7
:10A470000EF0F2FE21462846FFF7EAFE0A200EF013
:10A48000EBFE49464046FFF7E3FE02232846012241
:10A49000694600948DF805308DF804308DF806205B
:10A4A000FFF776FE69464046CDF80090FFF770FE54
:10A4B00086E7054A137A43F00803137203B0BDE838
:10A4C000F08300BF00260308F0710020F0B5C0EB58
:10A4D000C004A3003F4CE25C87B01C440AB907B03B
:10A4E000F0BD267EE18932460546A068FFF7B4FE3E
:10A4F0003246E18A2069FFF7AFFE2846FFF756FF94
:10A50000354B1E7AC6F3C006F7B2002FE7D1646858
:10A510002046FFF7B9F902A8FFF75EFA3A4620464F
:10A520004FF44071FFF7B4FA2C4B029320460121FF
:10A53000FFF764FA02A92046FFF7DCF94FF4A060A8
:10A54000FEF722FF012401A88DF805608DF8066052
:10A550008DF80740FEF722FF022D8DF8056027D009
:10A56000032D13D0A542BAD1202301A88DF80430C1
:10A57000FEF714FF01A81F238DF80430FEF70EFF2D
:10A5800029464FF40010FFF72DF9A8E7492301A849
:10A590008DF80430FEF702FF01A848238DF804303F
:10A5A000FEF7FCFE21464FF40000FFF71BF996E78B
:10A5B000222301A88DF80430FEF7F0FE01A8212324
:10A5C0008DF80430FEF7EAFE21464FF48000FFF7D5
:10A5D00009F984E700260308F0710020801A0600BC
:10A5E00070B54A4B450188B05A5D1D440AB908B0A0
:10A5F00070BD6C6806462046FEF7C0FC01A8FFF758
:10A600001BFEA98BAB89AA8AAD680B4313439BB28F
:10A61000022201A9284601938DF808208DF809200F
:10A62000FFF7B6FD022E59D0032E3FD0012E16D1D2
:10A6300031464FF48050FFF7E1F864200EF00CFE35
:10A64000052211462846FFF707FE0522062130485D
:10A65000FFF702FE052207212D48FFF7FDFD03A8A5
:10A66000FEF7E2FC4FF482702A4A2B4BADF80E0045
:10A6700003A92046CDF81220CDF81630FEF7B4FC21
:10A6800000212046FEF7F0FC01212046FEF7D8FC11
:10A6900002212046FEF7F6FC0028F9D02046FEF7FE
:10A6A000DDFCC0B28DF8030008B070BD01214FF48D
:10A6B0000040FFF797F864200EF0CEFD28460622F2
:10A6C0000A21FFF7C9FD06220B211448FFF7C4FD3C
:10A6D00006220C211148FFF7BFFDC0E701214FF40E
:10A6E0008040FFF77FF864200EF0B6FD2846052273
:10A6F0000D21FFF7B1FD05220E210948FFF7ACFD42
:10A7000005220F210648FFF7A7FDA8E750290308F7
:10A710000000024002000100000230000008024078
:10A7200000040240F0B589B0047800250495039533
:10A730000595069507950CB909B0F0BD0446684625
:10A740001F4616460D46FFF777FD2389227B0093AF
:10A75000637B8DF804208DF80630A27B60688DF84D
:10A760000720032369468DF80530FFF711FD237C90
:10A77000002BE1D094F8202061896068FFF76CFD20
:10A7800003A8FFF7FBFB238B3148059702214FF409
:10A7900080720390ADF81810ADF81C200C2B10D867
:10A7A000DFE803F04C0F0F0F430F0F0F3A0F0F0F9F
:10A7B000070003A96069FFF7ABFB08216069FFF799
:10A7C000FFFB6846FFF7C6FA6069224B984210D03B
:10A7D00003F5806398420CD003F57053984208D07B
:10A7E00003F58063984204D003F58063984218BF54
:10A7F0006D08013DADB2013E01210196ADF800505A
:10A80000FFF7B0FA69466069FFF756FA60690121FF
:10A81000FFF794FC09B0F0BD03A96069FFF730FBB6
:10A8200008216069FFF7C4FBCBE703A96069FFF764
:10A83000E3FA08216069FFF7B1FBC2E703A9606989
:10A84000FFF79EFA08216069FFF7A0FBB9E700BF98
:10A85000700001000000014030B3052824D070B51D
:10A86000342404FB00F0114C225C84B004440AB987
:10A8700004B070BD66680D4630460021FEF72AFD23
:10A880006846FEF71BFDE28BA38BADF806206946F8
:10A890003046ADF808300095FEF7AEFC3046012199
:10A8A000FEF718FD04B070BD704700BFD029030843
:10A8B00001210148FFF756BA000C00400021014871
:10A8C000FFF750BA000C0040F0B530489BB0FFF7DE
:10A8D000E9F82E48FFF7CCF904460028F9D10BA877
:10A8E000FFF7A4F94FF48062DFF8B0E0284B274867
:10A8F000109406250BA90B9411924FF480744FF419
:10A9000000324FF400674FF40056CDF830E0159256
:10A910000D930F95149412971396FFF75BF901218D
:10A920001A481C4CFFF794F901A8FEF7F5FB01A8A3
:10A93000FEF7DEFB05A8FEF7D1FB012305A91648AB
:10A940008DF828508DF819308DF81830FEF7A0FBDF
:10A9500004F1D80594F82020217C60680223243477
:10A96000FEF7EAFBAC42F5D101210B48FEF73AFCB9
:10A9700001210948FEF72CFC01210748FEF7D2FB14
:10A980000548FEF71FFC1BB0F0BD00BF106402407D
:10A99000A409002050230308002001404C2001405E
:10A9A00030B50C4C83B06846FFF746FC4FF4007599
:10A9B0004FF080736946204601930095FFF7E8FB4E
:10A9C0000A200EF049FC29462046FFF73BFC0120F7
:10A9D00003B030BD000402402DE9F04F01218DB0DD
:10A9E000CB48DFF890A3DFF89093FEF7E3FE012158
:10A9F0000020FEF7EBFE0121C648FEF7F3FE012121
:10AA0000C548FEF7FBFE01214FF40010FEF7D2FE11
:10AA100001214FF48000FEF7CDFEFEF72DFF04A8C4
:10AA2000FFF70AFC4FF0030B4FF6FF7304A9BB4876
:10AA300004938DF814B0FFF7ABFB04A9B848FFF7F7
:10AA4000A7FB04A9B748FFF7A3FB04A9B648FFF783
:10AA50009FFB04A9B548FFF79BFB4FF4A060FEF7EE
:10AA600093FCB34BB34A1978B34B00294FF0010460
:10AA70000CBF0A2504252146102015601C60FEF736
:10AA8000BDFE06A8FFF7D8FB02264FF4C06306A957
:10AA9000A64806938DF81D608DF81C60FFF778FBC3
:10AAA00007220921A148FFF7D7FB07220A219F4867
:10AAB000FFF7D2FB08A8FEF701FC0CAF08A94FF482
:10AAC000E1339E4808934FF40058CDF82680FEF7F6
:10AAD00093FB252307F8243D994B8DF80D40002565
:10AAE0005D80984B8DF80E605D80974B8DF80F4020
:10AAF0005D80964B38465D80AAF80250FEF74EFC0A
:10AB0000224640F225518D48FEF7FAFB21468B483C
:10AB100089F80140FEF7DEFB8D4B1B78002B00F01F
:10AB200095828C4B8C49DA790E6065F34102DA71BB
:10AB30009A79214642F004024FF400309A71FEF7F0
:10AB400051FE06A8FFF778FB0C2306A97748069369
:10AB50008DF81D608DF81C60FFF71AFB0722314647
:10AB60007248FFF779FB072259467048FFF774FBDC
:10AB700008A8FEF7A3FB08A94FF4E1337748089330
:10AB8000CDF82680FEF738FB6D4A8DF80D40958094
:10AB90006C4A8DF80E6095806B4A8DF80F40958059
:10ABA0006A4A2623384695808DF80C30AAF804505E
:10ABB000FEF7F4FB40F2255168482246FEF7A0FB61
:10ABC0002146664889F80250FEF784FB644BDFF8A3
:10ABD0005C81524EDFF848A10121052208461A6027
:10ABE000FEF7E8FD01210820FEF7FCFD08A802277A
:10ABF000FFF722FB5B4B0993404608A900254FF065
:10AC0000080B0897FFF7C4FA40F2CB3308A956485F
:10AC10000993CDF820B0ADF82850FFF74DF8012189
:10AC20005148FFF79FF8012211464F48FFF796FA67
:10AC30004E4B069306A8FEF7B1FB4D4B012408A826
:10AC40001D7089F80540FFF7F7FA4FF0030908A9CE
:10AC50003046CDF820B08DF824408DF826508DF880
:10AC600027508DF82590FFF793FAA6F81AB008A898
:10AC7000FFF7E2FA4FF0100B08A93046CDF820B0EC
:10AC80008DF824408DF826508DF827508DF82590AA
:10AC9000FFF77EFAA6F81AB008A8FFF7CDFA08A9C0
:10ACA0004FF40063504608938DF824408DF82650E9
:10ACB0008DF827508DF82590FFF76AFA4FF400635E
:10ACC000AAF81A3008A8FFF7B7FA4FF4805B08A972
:10ACD0005046CDF820B08DF824408DF826508DF8E0
:10ACE00027508DF82590FFF753FAAAF81AB016F0FE
:10ACF000CFFC08A8FFF7A0FA08A94046CDF820B07D
:10AD00008DF824408DF826508DF8274036E000BF9E
:10AD10001F906700FFC9FE36335F07000004024042
:10AD200000080240000C02400010024000000240F7
:10AD3000D9080020B400002030120020001001408B
:10AD40007C090020700900208809002044090020A7
:10AD50004A010020F07100202C1200200044004025
:10AD6000840E002001020001000C004032040001AA
:10AD7000BD09002050090020280900208DF82590E9
:10AD8000FFF706FA08A8FFF757FA4FF4806308A9FF
:10AD9000504608938DF824508DF826508DF82740A2
:10ADA0008DF82590FFF7F4F908A8FFF745FA4FF45E
:10ADB000007308A95046089301938DF824508DF82C
:10ADC00026508DF827408DF82590FFF7E1F908A867
:10ADD000FFF732FA402308A9504608938DF8244023
:10ADE0008DF826508DF827408DF82590FFF7D0F983
:10ADF00008A8FFF721FA802308A9504608938DF888
:10AE000024408DF826508DF827408DF82590FFF7C7
:10AE1000BFF908A8FFF710FA4FF4807B08A9504645
:10AE20008DF825908DF824508DF826508DF8274008
:10AE3000CDF820B0FFF7ACF916F0A4FB4FF4006397
:10AE4000A8F81A3008A8FFF7F7F908A9019B08939A
:10AE500030468DF824408DF826508DF827408DF827
:10AE60002570FFF795F9019B738308A8FFF7E4F9B4
:10AE700008A93046CDF820B08DF824408DF8265032
:10AE80008DF827408DF82570FFF782F908A8A6F8FD
:10AE90001AB0FFF7D1F908A98023304608938DF83E
:10AEA00024408DF826508DF827408DF82570FFF747
:10AEB0006FF94FF08003738308A8FFF7BDF908A965
:10AEC0004023304608938DF824408DF826508DF8A5
:10AED00027408DF82570FFF75BF94FF0400373832F
:10AEE00008A8FFF7A9F908A94FF4006340460893A2
:10AEF0008DF824408DF826508DF827408DF8257068
:10AF0000FFF746F94FF40063A8F81A3008A8FFF7D6
:10AF100093F908A94046CDF820B08DF824408DF86B
:10AF200026508DF827408DF82570FFF731F908A8D5
:10AF3000A8F81AB0FFF780F908A940234046089303
:10AF40008DF824408DF826508DF827408DF8257017
:10AF5000FFF71EF94FF04003A8F81A3008A8FFF7D2
:10AF60006BF908A98023404608938DF824408DF89A
:10AF700026508DF827408DF82570FFF709F94FF01E
:10AF80008003A8F81A3008A8FFF756F908A9304638
:10AF900008948DF824408DF826508DF827408DF8C0
:10AFA0002570FFF7F5F808A87483FFF745F93046D8
:10AFB00008A98DF8265008978DF824408DF8274071
:10AFC0008DF82570FFF7E4F8504B77831B78042B3E
:10AFD00006D04F4B1B781B2B02D00BF011FD02E06B
:10AFE0004C4B00221A704C4CDFF854811DF0E8FEE7
:10AFF00004F1C005FFF776F911E0FFF7F1FA08A8B0
:10B00000FFF71AF9A668A789CDF82480304608A969
:10B010000897FFF7BDF837831034A5420BD023788B
:10B02000002BF9D0E3782079002BE6D11034FFF71C
:10B030004DFAA542F3D10A200EF096F9FFF744FC31
:10B040000A200EF091F90DB0BDE8F08F334A344874
:10B0500091790078334D019363F382019171D17935
:10B060002E600D46011F18BF012161F341054FF409
:10B0700000302146D571FEF7B5FB06A8FFF7DCF8D6
:10B080000C2206A9284806928DF81D608DF81C60D8
:10B09000FFF77EF8314607222348FFF7DDF85946CF
:10B0A00007222148FFF7D8F808A8FEF707F908A9F2
:10B0B0004FF4E1331D480893CDF82680FEF79CF845
:10B0C0001B49019B8B801B498DF80D408B801A49D1
:10B0D0008DF80E608B8019498DF80F403846262276
:10B0E0008B808DF80C20AAF80430FEF757F9224621
:10B0F00040F225510D48FEF703F9019B0B4889F8F2
:10B1000002302146FEF7E6F860E500BFB0000020FF
:10B1100048010020D8080020402B0308F0710020CF
:10B1200094840020D00F0020000002400044004022
:10B130007C090020700900208809002044090020B3
:10B14000010200012DE9F8430EF046F800F1FA057E
:10B1500080462E460027264C05E00EF03DF88F4233
:10B1600008BF86423CD3207806F05EF80028F4D170
:10B170002E46002705E00EF02FF88F4208BF8642CA
:10B180002ED3207806F05AF80028F4D10EF024F8D7
:10B19000184B194A1B68A0EB08009842106023D88E
:10B1A00008F5FA76B0464FF0000905E00EF014F805
:10B1B000894508BF804513D3207806F035F800286C
:10B1C000F4D1002705E00EF007F88F4208BF864251
:10B1D00006D3207806F032F80028F4D1BDE8F883D1
:10B1E0004FF0FF30BDE8F8830120BDE8F88300BFD1
:10B1F00038120020140800201808002038B5002458
:10B200002546FFF79FFF002800FA05F044EA0004F6
:10B2100005F10105E4B207DB082DF2D1044A1378E9
:10B2200063401370204638BD4FF0FF3038BD00BF7B
:10B23000100800202DE9F84F744DDFF8DC812B78E1
:10B240006022152B06460F46C8F8002025D0122B89
:10B2500023D0012B14BF8C24022401E0013C19D01F
:10B26000FFF770FF0028F9DB0A24FFF76BFF0028C7
:10B2700010DB013CF9D1664B1A68930803EB5203CB
:10B28000C8F8003000E00BD0FFF75CFF0028044650
:10B290008246F8DA0020BDE8F88F44F62064DFE744
:10B2A000DFF87881814688F800008346FFF74AFF7F
:10B2B000002800FA09F040EA0B0009F101095FFAE1
:10B2C00080FBE7DBB9F1080FF0D198F80030BBF153
:10B2D0001B0F8BEA030388F80030DBD1A1464FF047
:10B2E000000BFFF72FFF031E03FA09F343EA0B03DA
:10B2F00009F101095FFA83FBCCDBB9F1080FF0D14A
:10B30000444A98F8003012788BEA03035A4588F8CB
:10B310000030BFD1A3464FF00009FFF713FF031E13
:10B3200003FA0BF343EA09090BF1010B5FFA89F900
:10B3300069DBBBF1080FF0D198F8003089EA03030C
:10B3400088F800304FEA09294FF0000BFFF7FAFEAA
:10B35000031E03FA04F343EA0B0304F101045FFA4A
:10B3600083FB97DB082CF1D198F800304BEA0909F0
:10B3700009F1FF328BEA0303B2F5817F88F80030D0
:10B3800088D80024FFF7DEFE031E03FA0AF344EA1E
:10B3900003040AF1010AE4B2FFF67CAFBAF1080F28
:10B3A000F0D198F800300E2C83EA040388F80030BE
:10B3B0007FF470AFFFF722FF0028FFF66BAF2B780A
:10B3C00098427FF467AFFFF719FF044600287FF427
:10B3D00061AFB9F1020FC8BFA9F102090ADDFFF799
:10B3E0000DFF0028FFF656AFA742C8BF3055013405
:10B3F000A145F4D1FFF702FF98F80000B0FA80F001
:10B400004009BDE8F88F6FF0FF099DE70F080020A5
:10B41000180800200E080020140800201008002042
:10B420002DE9F843974CDFF868820588814620783B
:10B4300005F040FF98F800300A35DB43AFB288F8DA
:10B4400000300825FF26F107207840F1898305F0B8
:10B4500005FF40200DF000FF207805F00FFF402091
:10B460000DF0FAFE013D4FEA5606ECD198F8003097
:10B47000DB4388F800300825FF26F207207840F1EA
:10B48000528305F0EBFE40200DF0E6FE207805F03B
:10B49000F5FE40200DF0E0FE013D4FEA5606ECD1EE
:10B4A00098F8003083F07F0388F8003008257F2665
:10B4B000F307207840F11A8305F0D0FE40200DF00C
:10B4C000CBFE207805F0DAFE40200DF0C5FE013DF0
:10B4D0004FEA5606ECD11B2688F800600825F107D4
:10B4E000207840F1E68205F0B9FE40200DF0B4FE70
:10B4F000207805F0C3FE40200DF0AEFE013D4FEA7E
:10B500005606ECD1604A98F8003015780135EDB256
:10B510006B40157088F800300826EA07207840F163
:10B52000AB8205F09BFE40200DF096FE207805F0E2
:10B53000A5FE40200DF090FE013E4FEA5505ECD1EE
:10B5400098F800303E0A734088F800300825F30769
:10B55000207840F1748205F081FE40200DF07CFEE1
:10B56000207805F08BFE40200DF076FE013D4FEA7D
:10B570005606ECD198F80030FFB27B4088F80030D6
:10B580000826F907207840F13D8205F067FE40204B
:10B590000DF062FE207805F071FE40200DF05CFE9B
:10B5A000013E4FEA5707ECD198F8003083F00E03C4
:10B5B00088F8003008250E26F207207840F1058231
:10B5C00005F04CFE40200DF047FE207805F056FEB9
:10B5D00040200DF041FE013D4FEA5606ECD12B4ACA
:10B5E00098F8003015786B4088F800300826EB0793
:10B5F000207840F1CD8105F031FE40200DF02CFE89
:10B60000207805F03BFE40200DF026FE013E4FEA7B
:10B610005505ECD1B9F8005098F800302D0A6B4070
:10B6200088F800300826EF07207840F1948105F073
:10B6300015FE40200DF010FE207805F01FFE402082
:10B640000DF00AFE013E4FEA5505ECD198F80030A6
:10B6500099F800506B4088F800300826E9072078F8
:10B6600040F15C8105F0FAFD40200DF0F5FD2078F9
:10B6700005F004FE40200DF0EFFD013E4FEA5505B8
:10B68000ECD107E0381200200E0800200F0800203F
:10B69000110800200825207805F0E0FD20200DF09D
:10B6A000DBFD207805F0EAFD20200DF0D5FD2078A7
:10B6B00005F0D4FD20200DF0CFFD207805F0DEFD53
:10B6C00020200DF0C9FD013DE5D10825207805F0C9
:10B6D000C5FD20200DF0C0FD207805F0CFFD202015
:10B6E0000DF0BAFD207805F0B9FD20200DF0B4FD75
:10B6F000207805F0C3FD20200DF0AEFD013DE5D121
:10B700000825207805F0AAFD20200DF0A5FD207861
:10B7100005F0B4FD20200DF09FFD207805F09EFD82
:10B7200020200DF099FD207805F0A8FD20200DF0D7
:10B7300093FD013DE5D10825207805F08FFD2020FF
:10B740000DF08AFD207805F099FD20200DF084FD94
:10B75000207805F083FD20200DF07EFD207805F097
:10B760008DFD20200DF078FD013DE5D108252078E4
:10B7700005F074FD20200DF06FFD207805F07EFDB2
:10B7800020200DF069FD207805F068FD20200DF0E7
:10B7900063FD207805F072FD20200DF05DFD013D78
:10B7A000E5D10825207805F059FD20200DF054FD45
:10B7B000207805F063FD20200DF04EFD207805F087
:10B7C0004DFD20200DF048FD207805F057FD20208C
:10B7D0000DF042FD013DE5D10827207805F03EFD42
:10B7E00020200DF039FD207805F048FD20200DF0D7
:10B7F00033FD207805F032FD20200DF02DFD20785E
:10B8000005F03CFD20200DF027FD013FE5D1B9F802
:10B810000030FBB1D9F8042098F80030D55D6B40BA
:10B8200088F800300826EA0720783AD505F016FD9A
:10B8300040200DF011FD207805F020FD40200DF096
:10B840000BFD013E4FEA5505EDD1B9F80030013747
:10B85000BB42DFDC002398F8006088F80030082540
:10B86000F30720783ED505F0F9FC40200DF0F4FCFC
:10B87000207805F003FD40200DF0EEFC013D4FEA7D
:10B880005606EDD1207805F0E9FC20200DF0E4FC0F
:10B89000207805F003FD1021C048BDE8F843FFF70C
:10B8A000C9BC05F0DBFC20200DF0D6FC207805F0AB
:10B8B000E5FC20200DF0D0FC207805F0CFFC202006
:10B8C0000DF0CAFC207805F0D9FC20200DF0C4FC56
:10B8D000013E4FEA5505A6D1B9F800300137BB4209
:10B8E00098DCB7E705F0BAFC20200DF0B5FC207815
:10B8F00005F0C4FC20200DF0AFFC207805F0AEFC74
:10B9000020200DF0A9FC207805F0B8FC20200DF0D7
:10B91000A3FC013D4FEA5606A2D1B3E705F09EFC19
:10B9200020200DF099FC207805F0A8FC20200DF0D7
:10B9300093FC207805F092FC20200DF08DFC2078FF
:10B9400005F09CFC20200DF087FC013E4FEA5505D8
:10B950007FF484AE9EE605F081FC20200DF07CFC97
:10B96000207805F08BFC20200DF076FC207805F087
:10B9700075FC20200DF070FC207805F07FFC202065
:10B980000DF06AFC013E4FEA55057FF44CAE5DE6D2
:10B9900005F064FC20200DF05FFC207805F06EFCC3
:10B9A00020200DF059FC207805F058FC20200DF0E7
:10B9B00053FC207805F062FC20200DF04DFC013E88
:10B9C0004FEA55057FF413AE24E605F047FC20202E
:10B9D0000DF042FC207805F051FC20200DF03CFCDD
:10B9E000207805F03BFC20200DF036FC207805F097
:10B9F00045FC20200DF030FC013D4FEA56067FF457
:10BA0000DBADECE505F02AFC20200DF025FC2078CC
:10BA100005F034FC20200DF01FFC207805F01EFC02
:10BA200020200DF019FC207805F028FC20200DF0D6
:10BA300013FC013E4FEA57077FF4A3ADB4E505F0D0
:10BA40000DFC20200DF008FC207805F017FC2020CC
:10BA50000DF002FC207805F001FC20200DF0FCFB2D
:10BA6000207805F00BFC20200DF0F6FB013D4FEA9D
:10BA700056067FF46CAD7DE505F0F0FB20200DF05F
:10BA8000EBFB207805F0FAFB20200DF0E5FB207899
:10BA900005F0E4FB20200DF0DFFB207805F0EEFB45
:10BAA00020200DF0D9FB013E4FEA55057FF435AD5E
:10BAB00046E505F0D3FB20200DF0CEFB207805F005
:10BAC000DDFB20200DF0C8FB207805F0C7FB20200F
:10BAD0000DF0C2FB207805F0D1FB20200DF0BCFB5F
:10BAE000013D4FEA56067FF4FAAC0BE505F0B6FBD4
:10BAF00020200DF0B1FB207805F0C0FB20200DF0D8
:10BB0000ABFB207805F0AAFB20200DF0A5FB2078E8
:10BB100005F0B4FB20200DF09FFB013D4FEA5606D7
:10BB20007FF4C6ACD7E405F099FB20200DF094FB20
:10BB3000207805F0A3FB20200DF08EFB207805F087
:10BB40008DFB20200DF088FB207805F097FB20204E
:10BB50000DF082FB013D4FEA56067FF48EAC9FE468
:10BB600005F07CFB20200DF077FB207805F086FBAC
:10BB700020200DF071FB207805F070FB20200DF0E7
:10BB80006BFB207805F07AFB20200DF065FB013D72
:10BB90004FEA56067FF457AC68E400BF1C0800204B
:10BBA000F8B5D24CD24BD34E207801221A7005F052
:10BBB00081FB3378DB4333700827FF25EB072078C0
:10BBC00040F1D88105F04AFB40200DF045FB20787C
:10BBD00005F054FB40200DF03FFB013F4FEA5505B7
:10BBE000ECD13378DB4333700827FF25E907207851
:10BBF00040F1A38105F032FB40200DF02DFB2078B1
:10BC000005F03CFB40200DF027FB013F4FEA5505B6
:10BC1000ECD1337883F07F03337008277F25EA0760
:10BC2000207840F16D8105F019FB40200DF014FBE8
:10BC3000207805F023FB40200DF00EFB013F4FEA7A
:10BC40005505ECD11B2535700827EB07207840F10E
:10BC5000308105F003FB40200DF0FEFA207805F05E
:10BC60000DFB40200DF0F8FA013F4FEA5505ECD1ED
:10BC7000A14A337815780135EDB26B4015703370F9
:10BC80000827E907207840F1F78005F0E7FA40201F
:10BC90000DF0E2FA207805F0F1FA40200DF0DCFA20
:10BCA000013F4FEA5505ECD10825207805F0D6FA7A
:10BCB00020200DF0D1FA207805F0E0FA20200DF0D8
:10BCC000CBFA207805F0CAFA20200DF0C5FA2078CA
:10BCD00005F0D4FA20200DF0BFFA013DE5D133780C
:10BCE000207883F00103337005F0B8FA40200DF09E
:10BCF000B3FA207805F0C2FA40200DF0ADFA08251D
:10BD000017E0207805F0AAFA20200DF0A5FA207897
:10BD100005F0B4FA20200DF09FFA207805F09EFA85
:10BD200020200DF099FA207805F0A8FA20200DF0D7
:10BD300093FA013DE5D1337883F00E033370082781
:10BD40000E25EA0720787AD505F088FA40200DF014
:10BD500083FA207805F092FA40200DF07DFA013F39
:10BD60004FEA5505EDD13378207883F00103337025
:10BD700005F074FA40200DF06FFA207805F07EFA95
:10BD800040200DF069FA082517E0207805F066FAE2
:10BD900020200DF061FA207805F070FA20200DF0D7
:10BDA0005BFA207805F05AFA20200DF055FA207839
:10BDB00005F064FA20200DF04FFA013DE5D1377807
:10BDC00035700825FB0720781DD505F047FA40207F
:10BDD0000DF042FA207805F051FA40200DF03CFABF
:10BDE000013D4FEA5707EDD1207805F037FA2020C2
:10BDF0000DF032FA207805F051FA10213F48BDE8E5
:10BE0000F840FFF717BA05F029FA20200DF024FAC0
:10BE1000207805F033FA20200DF01EFA207805F086
:10BE20001DFA20200DF018FA207805F027FA2020BE
:10BE30000DF012FA013D4FEA5707C3D1D4E705F0E0
:10BE40000DFA20200DF008FA207805F017FA2020CE
:10BE50000DF002FA207805F001FA20200DF0FCF92F
:10BE6000207805F00BFA20200DF0F6F9013F4FEA9B
:10BE700055057FF466AF76E705F0F0F920200DF068
:10BE8000EBF9207805F0FAF920200DF0E5F920789B
:10BE900005F0E4F920200DF0DFF9207805F0EEF947
:10BEA00020200DF0D9F9013F4FEA55057FF4E9AEA6
:10BEB000FAE605F0D3F920200DF0CEF9207805F050
:10BEC000DDF920200DF0C8F9207805F0C7F9202011
:10BED0000DF0C2F9207805F0D1F920200DF0BCF961
:10BEE000013F4FEA55057FF4B0AEC1E6381200209D
:10BEF0000F080020110800200E0800201C08002058
:10BF000005F0ACF920200DF0A7F9207805F0B6F97E
:10BF100020200DF0A1F9207805F0A0F920200DF0E7
:10BF20009BF9207805F0AAF920200DF095F9013F42
:10BF30004FEA55057FF473AE84E605F08FF92020B3
:10BF40000DF08AF9207805F099F920200DF084F998
:10BF5000207805F083F920200DF07EF9207805F097
:10BF60008DF920200DF078F9013F4FEA55057FF457
:10BF70003DAE4EE605F072F920200DF06DF9207807
:10BF800005F07CF920200DF067F9207805F066F9BE
:10BF900020200DF061F9207805F070F920200DF0D7
:10BFA0005BF9013F4FEA55057FF408AE19E600BF83
:10BFB0002DE9F04F7D4C7E4DDFF8F89185B00123DF
:10BFC0000190207889F8003005F074F92B78DB4374
:10BFD0002B700827FF26F207207840F1708505F0C6
:10BFE0003DF940200DF038F9207805F047F9402060
:10BFF0000DF032F9013F4FEA5606ECD12B78DB43C6
:10C000002B700827FF26F307207840F13A8505F0CA
:10C0100025F940200DF020F9207805F02FF9402077
:10C020000DF01AF9013F4FEA5606ECD12B7883F058
:10C030007F032B7008277F26F107207840F10385C6
:10C0400005F00CF940200DF007F9207805F016F9FD
:10C0500040200DF001F9013F4FEA5606ECD11B26B6
:10C060002E700827F207207840F1CF8405F0F6F80B
:10C0700040200DF0F1F8207805F000F940200DF097
:10C08000EBF8013F4FEA5606ECD1DFF82C812B7814
:10C0900098F800600136F6B2734088F800602B70A3
:10C0A0000827F307207840F1928405F0D7F8402064
:10C0B0000DF0D2F8207805F0E1F840200DF0CCF832
:10C0C000013F4FEA5606ECD10826207805F0C6F865
:10C0D00020200DF0C1F8207805F0D0F820200DF0D8
:10C0E000BBF8207805F0BAF820200DF0B5F82078DC
:10C0F00005F0C4F820200DF0AFF8013EE5D12B7813
:10C10000207883F001032B7005F0A8F840200DF093
:10C11000A3F8207805F0B2F840200DF09DF808262D
:10C1200017E0207805F09AF820200DF095F8207897
:10C1300005F0A4F820200DF08FF8207805F08EF897
:10C1400020200DF089F8207805F098F820200DF0D7
:10C1500083F8013EE5D12B7883F00E032B7008277E
:10C160000E26F107207840F1148405F077F840207E
:10C170000DF072F8207805F081F840200DF06CF891
:10C18000013F4FEA5606ECD12B78207883F001036B
:10C190002B7005F063F840200DF05EF8207805F074
:10C1A0006DF840200DF058F808261FE038120020E6
:10C1B000110800200F0800200E080020207805F04C
:10C1C0004DF820200DF048F8207805F057F8202091
:10C1D0000DF042F8207805F041F820200DF03CF8F1
:10C1E000207805F04BF820200DF036F8013EE5D11F
:10C1F0002F782E700826FA07207840F1AD8305F0DD
:10C200002DF840200DF028F8207805F037F8402070
:10C210000DF022F8013E4FEA5707ECD1207805F0E7
:10C220001DF820200DF018F8207805F037F81021BF
:10C23000D148FEF7FFFF002800F05F84DFF838A345
:10C2400000274FF01D03207889F8003005F032F800
:10C250002B78DB432B704FF0080BFF26F307207879
:10C2600040F15A8304F0FAFF40200CF0F5FF2078EB
:10C2700005F004F840200CF0EFFFBBF1010B4FEA92
:10C280005606EBD12B78DB432B704FF0080BFF26C3
:10C29000F107207840F1228304F0E0FF40200CF009
:10C2A000DBFF207804F0EAFF40200CF0D5FFBBF163
:10C2B000010B4FEA5606EBD12B7883F07F032B70EE
:10C2C0004FF0080B7F26F207207840F1E98204F056
:10C2D000C5FF40200CF0C0FF207804F0CFFF4020C5
:10C2E0000CF0BAFFBBF1010B4FEA5606EBD11B264F
:10C2F0002E704FF0080BF307207840F1B38204F062
:10C30000ADFF40200CF0A8FF207804F0B7FF4020DC
:10C310000CF0A2FFBBF1010B4FEA5606EBD198F8E7
:10C3200000602B780136F6B2734088F800602B70FD
:10C330004FF0080BF107207840F1768204F08EFF71
:10C3400040200CF089FF207804F098FF40200CF08A
:10C3500083FFBBF1010B4FEA5606EBD1082620788C
:10C3600004F07CFF20200CF077FF207804F086FF9B
:10C3700020200CF071FF207804F070FF20200CF0DA
:10C380006BFF207804F07AFF20200CF065FF013E5F
:10C39000E5D12A784FF0080B82EA0B022A705E463C
:10C3A000F207207840F1228204F058FF40200CF080
:10C3B00053FF207804F062FF40200CF04DFFBBF1EA
:10C3C000010B4FEA5606EBD12B7883F00E032B704E
:10C3D0004FF0080B0E26F307207840F1E98104F0B6
:10C3E0003DFF40200CF038FF207804F047FF40204C
:10C3F0000CF032FFBBF1010B4FEA5606EBD12B7864
:10C4000083F01D032B704FF0080B1D26F1072078D9
:10C4100040F1B08104F022FF40200CF01DFF207895
:10C4200004F02CFF40200CF017FFBBF1010B4FEA8A
:10C430005606EBD12B7883F004032B704FF0080BDA
:10C440000426F207207840F1778104F007FF4020AE
:10C450000CF002FF207804F011FF40200CF0FCFEED
:10C46000BBF1010B4FEA5606EBD12B7883F00403A6
:10C470002B704FF0080B0426F307207840F13E8123
:10C4800004F0ECFE40200CF0E7FE207804F0F6FE0D
:10C4900040200CF0E1FEBBF1010B4FEA5606EBD158
:10C4A0000826207804F0DAFE20200CF0D5FE207853
:10C4B00004F0E4FE20200CF0CFFE207804F0CEFE45
:10C4C00020200CF0C9FE207804F0D8FE20200CF0CB
:10C4D000C3FE013EE5D12B7883F030032B704FF083
:10C4E000080B3026F107207840F1EA8004F0B6FE10
:10C4F00040200CF0B1FE207804F0C0FE40200CF08B
:10C50000ABFEBBF1010B4FEA5606EBD108262078B3
:10C5100004F0A4FE20200CF09FFE207804F0AEFE74
:10C5200020200CF099FE207804F098FE20200CF0DA
:10C5300093FE207804F0A2FE20200CF08DFE013E38
:10C54000E5D12B78FEB273402B704FF0080BF20749
:10C55000207840F1978004F081FE40200CF07CFEB2
:10C56000207804F08BFE40200CF076FEBBF1010B2E
:10C570004FEA5606EBD101E01C0800204FF0080BF3
:10C58000207804F06BFE20200CF066FE207804F08A
:10C5900075FE20200CF060FE207804F05FFE202065
:10C5A0000CF05AFE207804F069FE20200CF054FEB6
:10C5B000BBF1010BE4D12E7885F800B04FF0080BE9
:10C5C000F307207841D504F049FE40200CF044FEEA
:10C5D000207804F053FE40200CF03EFEBBF1010B2E
:10C5E0004FEA5606ECD1207804F038FE20200CF0FB
:10C5F00033FE207804F052FE1021D648FEF71AFED2
:10C60000002800F07A829AF800305BB99AF801307D
:10C61000302B00D033B99AF802301BB903AB9AF82B
:10C620000320FA540137032F7FF40BAE9DF80D2041
:10C630009DF80E30019C9DF80C10A17043EA022376
:10C640000120238005B0BDE8F08F04F007FE202014
:10C650000CF002FE207804F011FE20200CF0FCFD0E
:10C66000207804F0FBFD20200CF0F6FD207804F08B
:10C6700005FE20200CF0F0FDBBF1010B4FEA560641
:10C680009ED1B0E704F0EAFD20200CF0E5FD207813
:10C6900004F0F4FD20200CF0DFFD207804F0DEFD36
:10C6A00020200CF0D9FD207804F0E8FD20200CF0CB
:10C6B000D3FDBBF1010B4FEA56067FF448AF5DE7AF
:10C6C00004F0CCFD20200CF0C7FD207804F0D6FD4E
:10C6D00020200CF0C1FD207804F0C0FD20200CF0DB
:10C6E000BBFD207804F0CAFD20200CF0B5FDBBF1A5
:10C6F000010B4FEA56067FF4F5AE07E704F0AEFDF6
:10C7000020200CF0A9FD207804F0B8FD20200CF0CA
:10C71000A3FD207804F0A2FD20200CF09DFD2078E0
:10C7200004F0ACFD20200CF097FDBBF1010B4FEAAB
:10C7300056067FF4A1AEB3E604F090FD20200CF085
:10C740008BFD207804F09AFD20200CF085FD2078E8
:10C7500004F084FD20200CF07FFD207804F08EFD95
:10C7600020200CF079FDBBF1010B4FEA56067FF457
:10C7700068AE7AE604F072FD20200CF06DFD2078A2
:10C7800004F07CFD20200CF067FD207804F066FDAD
:10C7900020200CF061FD207804F070FD20200CF0CA
:10C7A0005BFDBBF1010B4FEA56067FF42FAE41E66D
:10C7B00004F054FD20200CF04FFD207804F05EFDC5
:10C7C00020200CF049FD207804F048FD20200CF0DA
:10C7D00043FD207804F052FD20200CF03DFDBBF11C
:10C7E000010B4FEA56067FF4F6AD08E604F036FD7D
:10C7F00020200CF031FD207804F040FD20200CF0CA
:10C800002BFD207804F02AFD20200CF025FD207857
:10C8100004F034FD20200CF01FFDBBF1010B4FEAAA
:10C8200056067FF4BDADCFE504F018FD20200CF0D6
:10C8300013FD207804F022FD20200CF00DFD20785F
:10C8400004F00CFD20200CF007FD207804F016FD0C
:10C8500020200CF001FDBBF1010B4FEA56067FF4DE
:10C8600069AD7BE504F0FAFC20200CF0F5FC2078A3
:10C8700004F004FD20200CF0EFFC207804F0EEFC26
:10C8800020200CF0E9FC207804F0F8FC20200CF0CB
:10C89000E3FCBBF1010B4FEA56067FF42CAD3EE5FD
:10C8A00004F0DCFC20200CF0D7FC207804F0E6FC3F
:10C8B00020200CF0D1FC207804F0D0FC20200CF0DB
:10C8C000CBFC207804F0DAFC20200CF0C5FCBBF196
:10C8D000010B4FEA56067FF4F6AC08E504F0BEFC07
:10C8E00020200CF0B9FC207804F0C8FC20200CF0CB
:10C8F000B3FC207804F0B2FC20200CF0ADFC2078D2
:10C9000004F0BCFC20200CF0A7FCBBF1010B4FEAAB
:10C9100056067FF4BDACCFE404F0A0FC20200CF060
:10C920009BFC207804F0AAFC20200CF095FC2078D9
:10C9300004F094FC20200CF08FFC207804F09EFC86
:10C9400020200CF089FCBBF1010B4FEA56067FF466
:10C9500085AC97E41C08002004F080FC20200CF03B
:10C960007BFC207804F08AFC20200CF075FC2078F9
:10C9700004F074FC20200CF06FFC207804F07EFCA6
:10C9800020200CF069FC013E4FEA57077FF433ACDE
:10C9900044E404F063FC20200CF05EFC207804F0FA
:10C9A0006DFC20200CF058FC207804F057FC20206F
:10C9B0000CF052FC207804F061FC20200CF04CFCC0
:10C9C000013F4FEA56067FF4CCABFFF7DDBB04F026
:10C9D00045FC20200CF040FC207804F04FFC202087
:10C9E0000CF03AFC207804F039FC20200CF034FCE8
:10C9F000207804F043FC20200CF02EFC013F4FEA8D
:10CA000056067FF44EABFFF75FBB04F027FC2020F7
:10CA10000CF022FC207804F031FC20200CF01CFCEF
:10CA2000207804F01BFC20200CF016FC207804F089
:10CA300025FC20200CF010FC013F4FEA56067FF445
:10CA400011ABFFF722BB04F009FC20200CF004FC22
:10CA5000207804F013FC20200CF0FEFB207804F07A
:10CA6000FDFB20200CF0F8FB207804F007FC2020D0
:10CA70000CF0F2FB013F4FEA56067FF4DDAAFFF708
:10CA8000EEBA04F0EBFB20200CF0E6FB207804F07B
:10CA9000F5FB20200CF0E0FB207804F0DFFB2020E9
:10CAA0000CF0DAFB207804F0E9FB20200CF0D4FB3A
:10CAB000013F4FEA56067FF4A6AAFFF7B7BA04F083
:10CAC000CDFB20200CF0C8FB207804F0D7FB202001
:10CAD0000CF0C2FB207804F0C1FB20200CF0BCFB62
:10CAE000207804F0CBFB20200CF0B6FB013F4FEA8E
:10CAF00056067FF470AAFFF781BA002005B0BDE8A2
:10CB0000F08F00BF2DE9F041D14CD24ED24F2078AA
:10CB100012233B7004F0CEFB3378DB4333704FF0CD
:10CB20000808FF25EA07207840F1268304F096FBE9
:10CB300040200CF091FB207804F0A0FB40200CF08A
:10CB40008BFBB8F101084FEA5505EBD13378DB4395
:10CB500033704FF00808FF25EB07207840F1EE8294
:10CB600004F07CFB40200CF077FB207804F086FB7F
:10CB700040200CF071FBB8F101084FEA5505EBD1EC
:10CB8000337883F07F0333704FF008087F25E9077F
:10CB9000207840F1B58204F061FB40200CF05CFB92
:10CBA000207804F06BFB40200CF056FBB8F1010834
:10CBB0004FEA5505EBD11B2535704FF00808EA0701
:10CBC000207840F17F8204F049FB40200CF044FBC8
:10CBD000207804F053FB40200CF03EFBB8F1010834
:10CBE0004FEA5505EBD19D4A337815780135EDB202
:10CBF0006B40157033704FF00808EB07207840F158
:10CC0000438204F02BFB40200CF026FB207804F03C
:10CC100035FB40200CF020FBB8F101084FEA550528
:10CC2000EBD10825207804F019FB20200CF014FB30
:10CC3000207804F023FB20200CF00EFB207804F079
:10CC40000DFB20200CF008FB207804F017FB2020BF
:10CC50000CF002FB013DE5D1337883F0070333701C
:10CC60004FF008080725E907207840F1EF8104F02C
:10CC7000F5FA40200CF0F0FA207804F0FFFA40209A
:10CC80000CF0EAFAB8F101084FEA5505EBD1337818
:10CC900083F00E0333704FF008080E25EA07207862
:10CCA00040F1B68104F0DAFA40200CF0D5FA207891
:10CCB00004F0E4FA40200CF0CFFAB8F101084FEA92
:10CCC0005505EBD13D7833786B4033700827EB077F
:10CCD000207840F1808104F0C1FA40200CF0BCFAC9
:10CCE000207804F0CBFA40200CF0B6FA013F4FEA6E
:10CCF0005505ECD1337883F01403337008271425DD
:10CD0000E907207840F14A8104F0A8FA40200CF0AD
:10CD1000A3FA207804F0B2FA40200CF09DFA013F0B
:10CD20004FEA5505ECD10825207804F097FA202029
:10CD30000CF092FA207804F0A1FA20200CF08CFA82
:10CD4000207804F08BFA20200CF086FA207804F08A
:10CD500095FA20200CF080FA013DE5D1337883F07C
:10CD6000AC0333700827AC25EA07207840F1F9803E
:10CD700004F074FA40200CF06FFA207804F07EFA88
:10CD800040200CF069FA013F4FEA5505ECD13378A9
:10CD900083F08803337008278825EB07207840F15B
:10CDA000C38004F05BFA40200CF056FA207804F0BF
:10CDB00065FA40200CF050FA013F4FEA5505ECD1DE
:10CDC000337883F01303337008271325E90720789D
:10CDD00040F18D8004F042FA40200CF03DFA2078BA
:10CDE00004F04CFA40200CF037FA013F4FEA5505A9
:10CDF000ECD1337883F07603337008277625EA0781
:10CE0000207858D504F02AFA40200CF025FA207832
:10CE100004F034FA40200CF01FFA013F4FEA5505A8
:10CE2000EDD10023377833700825FB07207826D50D
:10CE300004F014FA40200CF00FFA207804F01EFAE7
:10CE400040200CF009FA013D4FEA5707EDD107E009
:10CE500038120020110800200F0800200E080020C2
:10CE6000207804F0FBF920200CF0F6F9207804F08B
:10CE700015FA1021CF48BDE8F041FEF7DBB904F008
:10CE8000EDF920200CF0E8F9207804F0F7F92020E3
:10CE90000CF0E2F9207804F0E1F920200CF0DCF944
:10CEA000207804F0EBF920200CF0D6F9013D4FEA90
:10CEB0005707BAD1D4E704F0D1F920200CF0CCF90F
:10CEC000207804F0DBF920200CF0C6F9207804F07B
:10CED000C5F920200CF0C0F9207804F0CFF920200B
:10CEE0000CF0BAF9013F4FEA550588D199E704F0F3
:10CEF000B5F920200CF0B0F9207804F0BFF920201B
:10CF00000CF0AAF9207804F0A9F920200CF0A4F97B
:10CF1000207804F0B3F920200CF09EF9013F4FEA8D
:10CF200055057FF453AF64E704F098F920200CF026
:10CF300093F9207804F0A2F920200CF08DF92078E4
:10CF400004F08CF920200CF087F9207804F096F991
:10CF500020200CF081F9013F4FEA55057FF41DAF09
:10CF60002EE704F07BF920200CF076F9207804F00D
:10CF700085F920200CF070F9207804F06FF920205A
:10CF80000CF06AF9207804F079F920200CF064F9AB
:10CF9000013F4FEA55057FF4E7AEF8E604F05EF98D
:10CFA00020200CF059F9207804F068F920200CF0CA
:10CFB00053F9207804F052F920200CF04DF9207834
:10CFC00004F05CF920200CF047F9013F4FEA5505C9
:10CFD0007FF496AEA7E604F041F920200CF03CF96E
:10CFE000207804F04BF920200CF036F9207804F07A
:10CFF00035F920200CF030F9207804F03FF920209A
:10D000000CF02AF9013F4FEA55057FF460AE71E656
:10D0100004F024F920200CF01FF9207804F02EF9F8
:10D0200020200CF019F9207804F018F920200CF0D9
:10D0300013F9207804F022F920200CF00DF9B8F152
:10D0400001084FEA55057FF429AE3BE604F006F9E6
:10D0500020200CF001F9207804F010F920200CF0C9
:10D06000FBF8207804F0FAF820200CF0F5F820788E
:10D0700004F004F920200CF0EFF8B8F101084FEAB1
:10D0800055057FF4F0AD02E604F0E8F820200CF03E
:10D09000E3F8207804F0F2F820200CF0DDF8207896
:10D0A00004F0DCF820200CF0D7F8207804F0E6F843
:10D0B00020200CF0D1F8B8F101084FEA55057FF4B3
:10D0C0009CADAEE504F0CAF820200CF0C5F820783D
:10D0D00004F0D4F820200CF0BFF8207804F0BEF85B
:10D0E00020200CF0B9F8207804F0C8F820200CF0CB
:10D0F000B3F8B8F101084FEA55057FF460AD72E569
:10D1000004F0ACF820200CF0A7F8207804F0B6F872
:10D1100020200CF0A1F8207804F0A0F820200CF0DA
:10D120009BF8207804F0AAF820200CF095F8B8F1CC
:10D1300001084FEA55057FF42AAD3CE504F08EF86E
:10D1400020200CF089F8207804F098F820200CF0CA
:10D1500083F8207804F082F820200CF07DF8207805
:10D1600004F08CF820200CF077F8B8F101084FEAB1
:10D1700055057FF4F1AC03E504F070F820200CF0C5
:10D180006BF8207804F07AF820200CF065F820780D
:10D1900004F064F820200CF05FF8207804F06EF8BA
:10D1A00020200CF059F8B8F101084FEA55057FF43A
:10D1B000B9ACCBE41C08002042884FF6FF739A42BA
:10D1C0002DE9F047074600F0E582C94CC94DDFF86C
:10D1D0002C832078062388F8003004F06BF82B7835
:10D1E000DB432B704FF00809FF26F307207840F14E
:10D1F000B38204F033F840200CF02EF8207804F0CD
:10D200003DF840200CF028F8B9F101094FEA560624
:10D21000EBD12B78DB432B704FF00809FF26F10789
:10D22000207840F17B8204F019F840200CF014F8CB
:10D23000207804F023F840200CF00EF8B9F1010931
:10D240004FEA5606EBD12B7883F07F032B704FF01B
:10D2500008097F26F207207840F1428203F0FEFFA2
:10D2600040200BF0F9FF207804F008F840200BF084
:10D27000F3FFB9F101094FEA5606EBD11B262E70D8
:10D280004FF00809F307207840F10C8203F0E6FF25
:10D2900040200BF0E1FF207803F0F0FF40200BF07E
:10D2A000DBFFB9F101094FEA5606EBD1DFF85092E6
:10D2B0002B7899F800600136F6B2734089F8006067
:10D2C0002B704FF0080AF107207840F1CD8103F070
:10D2D000C5FF40200BF0C0FF207803F0CFFF4020B7
:10D2E0000BF0BAFFBAF1010A4FEA5606EBD1082655
:10D2F000207803F0B3FF20200BF0AEFF207803F07E
:10D30000BDFF20200BF0A8FF207803F0A7FF20200E
:10D310000BF0A2FF207803F0B1FF20200BF09CFF60
:10D32000013EE5D12B7883F005032B704FF0080AFE
:10D330000526F207207840F1798103F08FFF402025
:10D340000BF08AFF207803F099FF40200BF084FF58
:10D35000BAF1010A4FEA5606EBD12B7883F00E039F
:10D360002B704FF0080A0E26F307207840F1408119
:10D3700003F074FF40200BF06FFF207803F07EFF76
:10D3800040200BF069FFBAF1010A4FEA5606EBD1D3
:10D390002B7883F006032B704FF0080A0626F1075E
:10D3A000207840F1078103F059FF40200BF054FF33
:10D3B000207803F063FF40200BF04EFFBAF1010A22
:10D3C0004FEA5606EBD10826207803F047FF2020CD
:10D3D0000BF042FF207803F051FF20200BF03CFFC0
:10D3E000207803F03BFF20200BF036FF207803F07D
:10D3F00045FF20200BF030FF013EE5D108262078C4
:10D4000003F02CFF20200BF027FF207803F036FFDD
:10D4100020200BF021FF207803F020FF20200BF0CC
:10D420001BFF207803F02AFF20200BF015FF013EA0
:10D43000E5D17E882B78360A73402B704FF0080AAE
:10D44000F207207840F1988003F008FF40200BF0AD
:10D4500003FF207803F012FF40200BF0FDFEBAF12D
:10D46000010A4FEA5606EBD12B78BE7873402B7039
:10D470004FF0080AF307207860D503F0EFFE402054
:10D480000BF0EAFE207803F0F9FE40200BF0E4FEFA
:10D49000BAF1010A4FEA5606ECD1002395F800A034
:10D4A0002B7008261AF0010F20782BD003F0D6FE3F
:10D4B00040200BF0D1FE207803F0E0FE40200BF07E
:10D4C000CBFE013E4FEA5A0AECD1207803F0C6FEAB
:10D4D00020200BF0C1FE207803F0E0FE102106486A
:10D4E000FDF7A8FE002840F05B81BDE8F08700BF93
:10D4F00038120020110800201C0800200F0800200E
:10D500000E08002003F0AAFE20200BF0A5FE2078D4
:10D5100003F0B4FE20200BF09FFE207803F09EFE67
:10D5200020200BF099FE207803F0A8FE20200BF0BD
:10D5300093FE013E4FEA5A0AB4D1C6E703F08EFECD
:10D5400020200BF089FE207803F098FE20200BF0BD
:10D5500083FE207803F082FE20200BF07DFE2078F1
:10D5600003F08CFE20200BF077FEBAF1010A4FEA9F
:10D5700056067FF47FAF90E703F070FE20200BF09B
:10D580006BFE207803F07AFE20200BF065FE2078F9
:10D5900003F064FE20200BF05FFE207803F06EFEA7
:10D5A00020200BF059FEBAF1010A4FEA56067FF42B
:10D5B00047AF59E703F052FE20200BF04DFE2078D4
:10D5C00003F05CFE20200BF047FE207803F046FEBF
:10D5D00020200BF041FE207803F050FE20200BF0BD
:10D5E0003BFEBAF1010A4FEA56067FF4D8AEEAE6EE
:10D5F00003F034FE20200BF02FFE207803F03EFED7
:10D6000020200BF029FE207803F028FE20200BF0CC
:10D6100023FE207803F032FE20200BF01DFEBAF12D
:10D62000010A4FEA56067FF49FAEB1E603F016FEFC
:10D6300020200BF011FE207803F020FE20200BF0BC
:10D640000BFE207803F00AFE20200BF005FE207868
:10D6500003F014FE20200BF0FFFDBAF1010A4FEA9F
:10D6600056067FF466AE78E603F0F8FD20200BF056
:10D67000F3FD207803F002FE20200BF0EDFD207872
:10D6800003F0ECFD20200BF0E7FD207803F0F6FD21
:10D6900020200BF0E1FDBAF1010A4FEA56067FF4B3
:10D6A00012AE24E603F0DAFD20200BF0D5FD207841
:10D6B00003F0E4FD20200BF0CFFD207803F0CEFD39
:10D6C00020200BF0C9FD207803F0D8FD20200BF0BE
:10D6D000C3FDB9F101094FEA56067FF4D3ADE5E584
:10D6E00003F0BCFD20200BF0B7FD207803F0C6FD51
:10D6F00020200BF0B1FD207803F0B0FD20200BF0CE
:10D70000ABFD207803F0BAFD20200BF0A5FDB9F1A8
:10D7100001094FEA56067FF49DADAFE503F09EFD8B
:10D7200020200BF099FD207803F0A8FD20200BF0BD
:10D7300093FD207803F092FD20200BF08DFD2078E2
:10D7400003F09CFD20200BF087FDB9F101094FEAA1
:10D7500056067FF464AD76E503F080FD20200BF0E3
:10D760007BFD207803F08AFD20200BF075FD2078EA
:10D7700003F074FD20200BF06FFD207803F07EFD98
:10D7800020200BF069FDB9F101094FEA56067FF43C
:10D790002CAD3EE5DFF82083C54CC64DDFF81C9369
:10D7A0002078142388F8003003F084FD2B78DB43C5
:10D7B0002B704FF0080AFF26F107207840F1AB826A
:10D7C00003F04CFD40200BF047FD207803F056FDA0
:10D7D00040200BF041FDBAF1010A4FEA5606EBD1A9
:10D7E0002B78DB432B704FF0080AFF26F2072078D6
:10D7F00040F1738203F032FD40200BF02DFD2078C4
:10D8000003F03CFD40200BF027FDBAF1010A4FEA7E
:10D810005606EBD12B7883F07F032B704FF0080A6C
:10D820007F26F307207840F13A8203F017FD40206D
:10D830000BF012FD207803F021FD40200BF00CFDD1
:10D84000BAF1010A4FEA5606EBD11B262E704FF0B3
:10D85000080AF107207840F1048203F0FFFC402021
:10D860000BF0FAFC207803F009FD40200BF0F4FCEB
:10D87000BAF1010A4FEA5606EBD199F800602B780D
:10D880000136F6B2734089F800602B704FF008093A
:10D89000F207207840F1C78103F0E0FC40200BF054
:10D8A000DBFC207803F0EAFC40200BF0D5FCB9F15A
:10D8B00001094FEA5606EBD10826207803F0CEFC8A
:10D8C00020200BF0C9FC207803F0D8FC20200BF0BE
:10D8D000C3FC207803F0C2FC20200BF0BDFC2078B4
:10D8E00003F0CCFC20200BF0B7FC013EE5D12B78F7
:10D8F00083F004032B704FF008090426F307207807
:10D9000040F1738103F0AAFC40200BF0A5FC2078C5
:10D9100003F0B4FC40200BF09FFCB9F101094FEA81
:10D920005606EBD12B7883F00E032B704FF00809CD
:10D930000E26F107207840F13A8103F08FFC402059
:10D940000BF08AFC207803F099FC40200BF084FC5B
